:100000000C942A000C9447000C9447000C94470071
:100010000C9447000C9447000C9447000C94470044
:100020000C9447000C9447000C9447000C94470034
:100030000C9447000C9447000C9447000C94470024
:100040000C9447000C9447000C9447000C94470014
:100050000C94470011241FBECFE5D8E0DEBFCDBF12
:1000600010E0A0E6B0E0ECEBFBE002C005900D92E2
:10007000A037B107D9F710E0A0E7B0E001C01D92AA
:10008000A037B107E1F70E9449000C94DC050C94FD
:1000900000000E94F3040E94360400E010E00F2EDE
:1000A000FAE0CF2EDD24F02D0F2EF4E6AF2EBB2488
:1000B000F02D0F2EF8EE8F2EF3E09F2EF02D0E94E4
:1000C0007304C82F8F3FD9F30E945D05C053CC0F36
:1000D000DC2FDD0FDD0FDC0F2FEF31EE44E0215080
:1000E00030404040E1F700C0000081E062E00E9443
:1000F00088050E947304C82F8F3FD9F30E945D05C5
:10010000D053ED2EEC0E8FEF91EEA4E08150904095
:10011000A040E1F700C0000081E063E00E94880594
:100120000E947304D82F8F3FD9F30E945D052FEFF3
:1001300031EE44E0215030404040E1F700C0000083
:1001400081E064E00E9488050E947304C82F8F3FFD
:10015000D9F30E945D05C053CC0FFC2EFF0CFF0CA1
:10016000FC0E8FEF91EEA4E081509040A040E1F7AB
:1001700000C0000081E065E00E9488050E947304D1
:10018000C82F8F3FD9F30E945D058F2D8053C80F74
:100190002FEF31EE44E0215030404040E1F700C005
:1001A000000081E067E00E948805DB3251F0DC321C
:1001B00018F4DA3249F51DC0DD3241F0DF3221F5A5
:1001C0001DC00C2F10E00E0D111D1EC0EC1660F4AA
:1001D0000C2F10E00E19110981E068E00E948805DB
:1001E0008DE20E945D0510C00E2D10E00C1B110960
:1001F0000BC03E2DC39F8001112406C08E2D6C2F95
:100200000E94A905082F10E08DE30E945D0581E0A2
:1002100069E00E94880543E0083E140764F1C801C4
:10022000B4010E94B505EC01862F805D0E945D053A
:1002300081E06AE00E948805CE01B5010E94B50503
:10024000EC01862F805D0E945D0581E06BE00E94DD
:100250008805CE01B6010E94B505C82F862F805DA6
:100260000E945D0581E06CE00E9488058C2F805D16
:100270000E945D053BC004361105FCF0C801B501C4
:100280000E94B505EC01862F805D0E945D0581E02E
:100290006AE00E948805CE01B6010E94B505C82F0C
:1002A000862F805D0E945D0581E06BE00E948805DD
:1002B0008C2F805D0E945D0519C00A30110594F0F5
:1002C000C801B6010E94B505C82F862F805D0E9427
:1002D0005D0581E06AE00E9488058C2F805D0E94A8
:1002E0005D0504C0802F805D0E945D050E9473043F
:1002F0002FEF31EE44E0215030404040E1F700C0A4
:100300000000813499F70E947E0581E061E00E943F
:100310008805D5CE823451F1833420F4813409F03C
:100320007BC007C0833409F43EC0843409F074C034
:1003300057C0413069F42AB381E090E0AC0102C0BB
:10034000440F551F6A95E2F7BA01622B6ABB089504
:100350002AB381E090E0AC0102C0440F551F6A95BA
:10036000E2F7BA01609562236ABB0895413069F4EF
:1003700027B381E090E0AC0102C0440F551F6A959D
:10038000E2F7BA01622B67BB089527B381E090E0E2
:10039000AC0102C0440F551F6A95E2F7BA0160959F
:1003A000622367BB0895413069F424B381E090E093
:1003B000AC0102C0440F551F6A95E2F7BA01622BE7
:1003C00064BB089524B381E090E0AC0102C0440F07
:1003D000551F6A95E2F7BA016095622364BB0895E0
:1003E000413069F421B381E090E0AC0102C0440FD8
:1003F000551F6A95E2F7BA01622B61BB089521B3DC
:1004000081E090E0AC0102C0440F551F6A95E2F70D
:10041000BA016095622361BB0895823451F183343F
:1004200020F4813409F07BC007C0833409F43EC056
:10043000843409F074C057C0413069F42BB381E0B3
:1004400090E0AC0102C0440F551F6A95E2F7BA0173
:10045000622B6BBB08952BB381E090E0AC0102C02E
:10046000440F551F6A95E2F7BA01609562236BBB92
:100470000895413069F428B381E090E0AC0102C0F6
:10048000440F551F6A95E2F7BA01622B68BB0895C5
:1004900028B381E090E0AC0102C0440F551F6A957B
:1004A000E2F7BA016095622368BB0895413069F4B0
:1004B00025B381E090E0AC0102C0440F551F6A955E
:1004C000E2F7BA01622B65BB089525B381E090E0A5
:1004D000AC0102C0440F551F6A95E2F7BA0160955E
:1004E000622365BB0895413069F422B381E090E056
:1004F000AC0102C0440F551F6A95E2F7BA01622BA6
:1005000062BB089522B381E090E0AC0102C0440FC9
:10051000551F6A95E2F7BA016095622362BB0895A0
:100520008234F1F0833420F4813409F04FC006C0E6
:10053000833441F1843409F049C036C029B381E0E5
:1005400090E0062E02C0880F991F0A94E2F730E06F
:100550008223932302C0959587956A95E2F70895C3
:1005600026B381E090E0062E02C0880F991F0A94FE
:10057000E2F730E08223932302C0959587956A9530
:10058000E2F7089523B381E090E0062E02C0880FC1
:10059000991F0A94E2F730E08223932302C09595D5
:1005A00087956A95E2F7089520B381E090E0062EE2
:1005B00002C0880F991F0A94E2F730E08223932348
:1005C00002C0959587956A95E2F7089580E00895B1
:1005D0008234B9F0833418F48134C9F505C083340A
:1005E000E9F08434A1F527C02BB381E090E0AC01A1
:1005F00002C0440F551F6A95E2F7BA0162276BBB30
:10060000089528B381E090E0AC0102C0440F551F6B
:100610006A95E2F7BA01622768BB089525B381E0C5
:1006200090E0AC0102C0440F551F6A95E2F7BA0191
:10063000622765BB089522B381E090E0AC0102C05F
:10064000440F551F6A95E2F7BA01622762BB08950D
:10065000823461F0833418F4813469F405C0833442
:1006600039F0843441F406C06ABB089567BB08952D
:1006700064BB089561BB0895823461F0833418F43B
:10068000813469F405C0833439F0843441F406C000
:100690006BBB089568BB089565BB089562BB089560
:1006A000823461F0833418F4813471F405C08334EA
:1006B00039F0843449F406C089B3089586B30895A7
:1006C00083B3089580B3089580E00895823451F192
:1006D000833420F4813409F07BC007C0833409F4EB
:1006E0003EC0843409F074C057C0413069F42BB364
:1006F00081E090E0AC0102C0440F551F6A95E2F71B
:10070000BA01622B6BBB08952BB381E090E0AC0182
:1007100002C0440F551F6A95E2F7BA016095622343
:100720006BBB0895413069F428B381E090E0AC01DF
:1007300002C0440F551F6A95E2F7BA01622B68BBED
:10074000089528B381E090E0AC0102C0440F551F2A
:100750006A95E2F7BA016095622368BB089541305B
:1007600069F425B381E090E0AC0102C0440F551F4D
:100770006A95E2F7BA01622B65BB089525B381E063
:1007800090E0AC0102C0440F551F6A95E2F7BA0130
:100790006095622365BB0895413069F422B381E01E
:1007A00090E0AC0102C0440F551F6A95E2F7BA0110
:1007B000622B62BB089522B381E090E0AC0102C0DD
:1007C000440F551F6A95E2F7BA016095622362BB38
:1007D00008956F70823481F0833418F48134F1F419
:1007E00005C0833479F08434C9F412C08BB3807FA0
:1007F0008BBB8BB3862B8BBB88B3807F88BB88B3C6
:10080000862B88BB85B3807F85BB85B3862B85BB54
:1008100082B3807F82BB82B3682B62BB08956295EE
:10082000607F823481F0833418F48134F1F405C0A0
:10083000833479F08434C9F412C08BB38F708BBBCE
:100840008BB3862B8BBB88B38F7088BB88B3862B0A
:1008500088BB85B38F7085BB85B3862B85BB82B380
:100860008F7082BB82B3682B62BB089584E460E022
:1008700041E00E948A0184E461E041E00E948A0133
:1008800084E462E041E00E948A0184E463E041E0A4
:100890000E948A0184E464E040E00E948A0184E4CA
:1008A00065E040E00E948A0184E466E040E00E9446
:1008B0008A0184E467E040E00E948A0184E464E005
:1008C00041E00E94660384E465E041E00E94660323
:1008D00084E466E041E00E94660384E467E041E06E
:1008E0000E94660308950F931F93CF93DF93CDB7B4
:1008F000DEB760970FB6F894DEBF0FBECDBFDE0146
:100900001196E0E6F0E080E101900D928150E1F770
:1009100000E084E460E041E00E940D0284E461E0D4
:1009200041E00E940D0284E462E041E00E940D0279
:1009300084E463E041E00E940D0284E4602F40E023
:100940000E940D0210E0612F6C5F84E40E9490020F
:10095000882361F4E02FF0E0EE0FFF1FEE0FFF1F82
:10096000E10FF11DEC0FFD1F818104C01F5F1430EA
:1009700051F70BC060960FB6F894DEBF0FBECDBF27
:10098000DF91CF911F910F9108950F5F043009F609
:100990008FEFF0CF82E460E041E00E940D028FE92A
:1009A0009FE00197F1F700C0000082E460E040E0C2
:1009B0000E940D028FE99FE00197F1F700C000004F
:1009C0000895682F81E40E943C0382E461E040E0E6
:1009D0000E940D020E94CA048FEC97E00197F1F784
:1009E00000C0000008958FEF91EEA4E08150904088
:1009F000A040E1F700C0000081E460E041E00E9417
:100A00008A0181E461E041E00E948A0181E462E0C0
:100A100041E00E948A0181E463E041E00E948A0192
:100A200081E464E041E00E948A0181E465E041E004
:100A30000E948A0181E466E041E00E948A0181E42B
:100A400067E041E00E948A0182E460E041E00E94A8
:100A50008A0182E462E041E00E948A0182E461E06E
:100A600041E00E948A0182E462E040E00E940D02BF
:100A700088E30E94E104AFECB7E01197F1F700C002
:100A800000008EE00E94E1048FEC97E00197F1F7FF
:100A900000C0000081E00E94E104AFE1BEE41197D4
:100AA000F1F700C0000086E00E94E1048FEC97E0BF
:100AB0000197F1F700C000000895682F81E40E94BB
:100AC0003C0382E461E041E00E940D020E94CA04FE
:100AD0008FEC97E00197F1F700C000000895CF93E5
:100AE000DF93EC018881882331F021960E945D0517
:100AF00089918823D9F7DF91CF91089581E00E94F1
:100B0000E1048FE19EE40197F1F700C00000089531
:100B1000282F2150223070F4613170F4662371F077
:100B2000813019F4962F91580AC0823041F4962FE3
:100B3000915405C090E803C090E801C090E8892F67
:100B40000E94E1048FEC97E00197F1F700C00000EC
:100B50000895991B79E004C0991F961708F0961B19
:100B6000881F7A95C9F78095089597FB092E072667
:100B70000AD077FD04D00CD006D000201AF470956E
:100B800061957F4F0895F6F7909581959F4F089551
:100B9000AA1BBB1B51E107C0AA1FBB1FA617B707A3
:100BA00010F0A61BB70B881F991F5A95A9F78095BF
:0C0BB0009095BC01CD010895F894FFCF92
:100BBC003738392F3435362A3132332D41303D2BED
:00000001FF
